:020000040800F2
:1000000070180020C9020008553B0008572B000853
:10001000513B0008E9230008F554000800000000E7
:10002000000000000000000000000000014D00087A
:10003000ED23000800000000B5490008594E0008F3
:10004000E3020008E3020008E3020008E3020008FC
:10005000E3020008E3020008E3020008E3020008EC
:10006000E3020008E3020008E3020008E3020008DC
:10007000E3020008E3020008E3020008E3020008CC
:10008000E3020008E3020008E3020008E3020008BC
:10009000E3020008E3020008E3020008E3020008AC
:1000A000E3020008E3020008E3020008E30200089C
:1000B000E3020008E3020008BD4E0008E302000866
:1000C000E3020008E3020008E3020008E30200087C
:1000D000E30200083151000879510008C5510008B9
:1000E000E3020008E3020008E3020008E30200085C
:1000F000E3020008E3020008E3020008E30200084C
:10010000E3020008E3020008E3020008E30200083B
:10011000E3020008E3020008E3020008E30200082B
:10012000E3020008E3020008E3020008E30200081B
:1001300000F002F800F0B8F80AA090E8000C824441
:100140008344AAF10107DA4501D100F0ADF8AFF21E
:10015000090EBAE80F0013F0010F18BFFB1A43F0A5
:1001600001031847D08D0000F08D000010F8013B0E
:100170000A4413F0030408BF10F8014B1D1108BF17
:1001800010F8015B641E05D010F8016B641E01F8C5
:10019000016BF9D1002D15D010F8014B03F00C03C1
:1001A0000C2BA1EB04040ABF10F8013BA4EB831451
:1001B000A4EB032405F1010314F8016B5B1E01F8A5
:1001C000016BF9D5914238BF10F8013BD1D370478C
:1001D0000023002400250026103A28BF78C1FBD850
:1001E000520728BF30C148BF0B6070476E2900F02E
:1001F0003185702900F00382662908F0D8806529CE
:1002000008F0D580672908F0D2806129AFF300801B
:1002100003681B0A28BF41F08001692900F074813E
:10022000642900F07181752900F06E816F2901F059
:100230002D80782900F0CF81E92900F0C787E429D3
:1002400000F0C487F52900F0C187EF2901F02A806A
:10025000F82900F0CE810368DB0928BF41F0800156
:10026000632900F04887732900F04D87E32901F0E6
:10027000D980F32901F0DE80002070471FB59DE88A
:10028000030000F03BFC01F01BF8040000200021FB
:1002900006F0C4FF401C60600020002106F0D4FF7F
:1002A000E0601FBD10B510BD01F05EF91146FFF70B
:1002B000E5FF05F02DFD01F07CF903B4FFF7F2FF37
:1002C00003BC01F0EDF900000948804709480047E8
:1002D000FEE7FEE7FEE7FEE7FEE7FEE7FEE7FEE7F6
:1002E000FEE7FEE704480549054A064B7047000053
:1002F0005D4E0008310100087012002070180020C7
:10030000701400207014002070B5064600F0DAFB6F
:10031000056806F10B0020F00704B4429CBF0020E2
:1003200070BD2B466A68BAB11068A04210D304F1C0
:10033000080188423CBF5068586007D351681019C3
:1003400041601168091B016058601460101D70BD88
:1003500013465268002AE7D12146284600F0BAFB2E
:100360000028DED170BD70B50446051F00F0AAFB61
:100370000068002C14BF446870BD002C18BFAC424C
:100380003CBF20466468F8D301680A18AA4218BF27
:10039000456003D12A680546114401602868411967
:1003A000A1421CBF6C6070BD61686960216808442F
:1003B000286070BD10B5044600F07CFB0068005D4D
:1003C000C00602D504F1200010BD204610BD00007B
:1003D0007CB51D4616460C00009001D02044401EFE
:1003E000074B7B442A4669460190304600F059FE8F
:1003F00005461CB10020694600F066FE28467CBD1B
:10040000ED0C00000FB41CB5084B06AA7B446946EE
:100410000090059800F045FE04460020694600F073
:1004200053FE20461CBC5DF814FB0000B90C000014
:100430000FB47CB50C0009AA009001D02044401EE6
:10044000084B7B4469460190089800F02AFE054657
:100450001CB10020694600F037FE28467CBC5DF8E0
:1004600014FB00008D0C000070B50446856900681F
:10047000C10601D5302600E02026C00707D070BD98
:10048000D4E9012130469047206A401C20626D1E4D
:10049000F6D570BD70B5044685690078C00707D1F0
:1004A00070BDD4E9012120209047206A401C2062C1
:1004B0006D1EF6D570BD70B50C460546012A05D0F7
:1004C0002878800600D5EA69002302E0012305E0D0
:1004D0005B1C934202D2E05C0028F9D1A869E618BF
:1004E000C01AA861286A184428622846FFF7BCFF92
:1004F00004E0D5E9012114F8010B9047B442F8D388
:100500002846FFF7C7FF70BD2DE9F04106460024DD
:1005100010687529314616A510D000F030FB002870
:1005200002DA404213A507E031688A0701D512A517
:1005300002E0490704D511A5012401E000F028FBE1
:1005400000210A2206F1240709E0B0FBF2FCB0FB0F
:10055000F2F302FB1C00303078541846491C002886
:10056000F3D123462A463046BDE8F04100F019BBDE
:10057000000000002D0000002B0000002000000003
:10058000F0B40D460188090502D5214C7C4402E0F7
:100590001F4C7C440E34002100F1240608E002F0D8
:1005A0000F071209E75D42EA03721B097754491CE1
:1005B00052EA0307F3D102780023120704D5702D05
:1005C00006D009B1022311342246F0BC00F0E9BA8A
:1005D00001231034F8E770B504460D462146106833
:1005E00000F0D6FA024629462046BDE870400023B6
:1005F000C6E7D21D22F00703D3E90023C0E7036852
:10060000126843F0200303600823C3610023B7E7A7
:10061000F18700002DE9F05F894604464FF0000A9B
:10062000DFF874B1FB44C0F820A02046E168884799
:10063000002874D0252806D0D4E901219047206AEB
:10064000401C2062F1E700265F462046E1688847AB
:100650002028054607DB312D05D2781910F8200C2B
:1006600008B10643F1E7B00701D526F00406C4F847
:100670001CA00027C4F818A02A2D09D0284605F090
:100680005BF938B304EB8708303DC8F8185019E01F
:1006900059F8041B204604EB87029161E168884702
:1006A000012F054618D1E069002820DA26F020063F
:1006B0001DE0D8F8180000EB800005EB4000303852
:1006C000C8F818002046E1688847054605F034F967
:1006D0000028EED1012F0AD02E2D08D12046E16846
:1006E00088477F1C0546022F46F02006C4DBA06920
:1006F000002803DA404246F00106A061F00701D06D
:1007000026F010066C2D0BD0682D09D04C2D39D059
:100710006A2D35D0742D35D07A2D33D016E038E0DF
:10072000E1682F4620468847B842054609D16C2F1C
:1007300026D04FF48060E16806432046884705468E
:1007400004E06C2F1AD04FF4807006430DB3A5F16E
:100750004100192802D8203546F400664A46294649
:10076000204626604E46FFF741FD80B101280BD0A0
:10077000F61D26F0070000F1080956E74020E4E7DF
:100780008020D8E70020D6E706F104094DE7284687
:1007900052E7206ABDE8F09F81870000401ECAB280
:1007A00010F8011F8A4202D00029F9D100207047B9
:1007B00010B5431E13F8014F002CFBD105E011F8D2
:1007C000014B002C03F8014B03D0521EF7D200213D
:1007D000197010BD30B505460B462A4613F8014B7B
:1007E00012F8010B08B1A042F8D01CB1002802D0C9
:1007F0006D1CF1E7284630BD40EA0103024630B5E2
:100800009B0710D14FF0013400E008C208C91D1B3E
:100810009D4315EAC41FF8D013F0FF0102F8011B35
:100820000DD01B0AF8E711F8013B002B02F8013B41
:1008300005D011F8013B002B02F8013BF3D130BD8C
:1008400010B5431C02E010F8011B71B18107FAD109
:100850004FF0013202C88C1A8C4314EAC211F9D04D
:10086000C01A0A0603D0C01E10BDC01A10BD0A046B
:1008700001D0801E10BD0902FCD0401E10BD40EA10
:10088000010370B59B072ED14FF00136042A2AD3FD
:1008900008C810C99D1B9D43121F15EAC61517D025
:1008A000D8B2E1B2401A50EA056110D198B2A1B2B3
:1008B000401A50EA05410AD123F07F4024F07F41DD
:1008C000401A50EA052102D1180EA0EB146070BD49
:1008D000A342DBD018BA21BA884201D9012070BDE9
:1008E0004FF0FF3070BD0AB9002070BD10F8013B19
:1008F00011F8014B63B1A3420AD1521E08D010F87F
:10090000013B11F8014B1BB1A34201D1521EEDD1A5
:10091000181B70BD421E12F8013F002BFBD111F8CD
:10092000013B002B02F8013BF9D17047032A40F24A
:10093000308010F0030C00F0158011F8013BBCF181
:10094000020F624498BF11F801CB00F8013B38BF99
:1009500011F8013BA2F1040298BF00F801CB38BFA7
:1009600000F8013B11F0030300F02580083AC0F0C5
:10097000088051F8043B083A51F804CBA0E808106D
:10098000F5E7121D5CBF51F8043B40F8043BAFF3A0
:100990000080D20724BF11F8013B11F801CB48BFFA
:1009A00011F8012B24BF00F8013B00F801CB48BF30
:1009B00000F8012B704710B5203AC0F00B80B1E869
:1009C0001850203AA0E81850B1E81850A0E8185084
:1009D000BFF4F5AF5FEA027C24BFB1E81850A0E88D
:1009E000185044BF18C918C0BDE810405FEA827CA7
:1009F00024BF51F8043B40F8043B08BF7047D207BE
:100A000028BF31F8023B48BF11F8012B28BF20F85E
:100A1000023B48BF00F8012B70474FF00002042949
:100A2000C0F0128010F0030C00F01B80CCF1040C1D
:100A3000BCF1020F18BF00F8012BA8BF20F8022B51
:100A4000A1EB0C0100F00DB85FEAC17C24BF00F8F7
:100A5000012B00F8012B48BF00F8012B70474FF025
:100A6000000200B5134694469646203922BFA0E8FE
:100A70000C50A0E80C50B1F12001BFF4F7AF09070A
:100A800028BFA0E80C5048BF0CC05DF804EB8900FB
:100A900028BF40F8042B08BF704748BF20F8022B3E
:100AA00011F0804F18BF00F8012B70477047704756
:100AB0007047000010B500F003FC001D10BD00BF22
:100AC0005D670000004870471412002070477047AF
:100AD0007047704738B504460A4600206946AFF3B0
:100AE0000080002808BF38BD02460099204600F06B
:100AF000EFFB012038BD012000F02EBDF8B5AFF3AB
:100B00000080054600200C46102000BF0646A819AC
:100B1000A0420DD9324669460020AFF3008007009D
:100B200008BF00F019FD0098A04218BF0546C4197F
:100B3000FFF7C8FF05600746F01D20F007004619C3
:100B4000284600F00AF8B44208BFF8BDA21B31469F
:100B50003868BDE8F84000F0BBBB00210160C0E987
:100B6000011070471020704710B500F0ADFB006811
:100B700010BD10B5044600F0A7FB046010BD096865
:100B80004A0501D540B27047C905FCD500B270478F
:100B900009684A0501D5C0B27047C905FCD580B2C5
:100BA00070472DE9F0470D4699469246044600F1FC
:100BB00024080168880604D5E06921F0100121604D
:100BC00000E00120A84201DD471B00E00027A169E9
:100BD0007A1902EB0900081AA0612078C00602D435
:100BE0002046FFF741FC002608E0D4E901211AF86D
:100BF00006009047206A401C761C20624E45F4DBBC
:100C00002078C0060AD52046FFF72EFC06E0D4E97E
:100C1000012130209047206A401C2062381EA7F135
:100C20000107F4DC07E0D4E9012118F8050090473A
:100C3000206A401C2062281EA5F10105F3DC204635
:100C4000FFF728FC2078000602D50220BDE8F087D7
:100C50000120FBE711680268006A530501D508709E
:100C60000AE0D30501D5088006E0130603D5C217B4
:100C7000C1E9000200E008600120704770472DE9DB
:100C8000FF4F0C461E464FF0FF378BB0D2E90001F4
:100C9000DDF860800A908A46C1F30A5505B93D46E1
:100CA000002108464FF00000BAF1000F00F44000A8
:100CB00005DA00EB80004FF4400101EA50004FEAF2
:100CC0009059B9F1010F00DDB9460A9850EA4A007F
:100CD0000ED044F61050A5F2FF3545432F14B8F15D
:100CE000000F1ED07542291E1EDDC9F100021CE056
:100CF000B8F1010F4FF0000001D0302103E0F243C2
:100D000005E02154401CB042FBDB304600220021AC
:100D100021540B99C1F80880C1E900200FB0BDE84B
:100D2000F08FBD1B6D1CDEE74A4600DA694206A85B
:100D300000F084FB06AB93E8070003AB83E80700F1
:100D400050460A9900F0D2FC8DE80700A0F500504B
:100D50001F3800900398002D09DD42F21F014A461A
:100D6000084403A90390684600F031FF08E0A0F5AD
:100D700000504A461F3803A90390684600F03BFF25
:100D80008DE807000004000C03D04FF0FF3041084D
:100D900000E01046B8F1000F03D000220092154683
:100DA0001EE0751E05D400F0ADFA303262556D1E9E
:100DB000F9D5B3460122084302D000227F1C04E08B
:100DC0002078302801D100227F1E002A099786D082
:100DD0001DE0112D07DA00F095FA303262556D1CD6
:100DE00050EA0102F5D1084302D00098C8B10EE0E4
:100DF0000021681E05E0235C625C63542254401E9F
:100E0000491C8142F7DBAB46A81B401E099000201D
:100E100004F80B000B98099AC0F80880C0E9002B71
:100E20007CE711264FF0000859E72DE9F04F88467E
:100E30000446D21D22F0070191B0D1E90001CDE9AD
:100E40000A0104F0EFFC02460B98C00F01D02D20E0
:100E500007E02068810701D52B2002E0202101EA6C
:100E6000C000032A099001D0072A05DB034641464A
:100E7000204600F08DFA0BE12078800601D5E0696C
:100E800000E00620B8F1650F814606D0B8F1660F84
:100E900018D0B8F1670F70D131E00020B9F1110F0F
:100EA000009001DB112301E009F101030AAA01A965
:100EB0000CA8FFF7E4FEDDE90C70002609F101053E
:100EC000834647E001204B4600904FF000470AAAB6
:100ED00001A90CA8FFF7D3FEDDE90DB00C995D4622
:100EE000002610B909F101000D18B9EB050003D473
:100EF000C0F1FF3609F10105A5EB09002BE0B9F1BE
:100F0000010F01DA4FF001090020B9F1110F009033
:100F1000484601DD112300E003460AAA01A90CA8F6
:100F2000FFF7ADFEDDE90C704D46002683462078C4
:100F300000070AD4AB4500DA5D4601A8012D04DDA7
:100F4000411911F8011C302907D04F4502DA17F179
:100F5000040F04DA012082460FE06D1EEEE7002F39
:100F600002DCED1B3E4403E0781CA84200DD7D1C42
:100F7000B81B00F1010A4FF000472078000703D4A6
:100F8000AA4501DB4FF0FF3A0021B7F1004F0DF108
:100F900043088DF8431024D002202B23002F01DAC0
:100FA0007F422D230A21021EA0F1010000DC5FB167
:100FB00097FBF1FC97FBF1F201FB1C7C17460CF14F
:100FC000300C08F801CDEEE7A8F10100037021888C
:100FD000090501D5452100E06521A0F1010800F8CF
:100FE000011C09980FA9A1EB0807FF1D00B1012002
:100FF000411901EBEA70A1693844081A401EA0614A
:101000002078C00602D42046FFF72EFA099828B1AE
:10101000D4E901219047206A401C20622078C00654
:1010200022D52046FFF720FA1EE0002E04DBB34550
:1010300002DD01A8805D00E03020D4E90121904765
:10104000206A401C2062761CAAF101005FEA000AB7
:101050000AD100F035F9C0680168405CD4E901218B
:101060009047206A401C2062281EA5F10105DCDCA7
:1010700007E0D4E9012118F8010B9047206A401CD1
:101080002062381EA7F10107F3DC2046FFF702FAC1
:10109000032011B043E6000001694A1C0261087890
:1010A000704700B58FB0CDE90131002105910549A8
:1010B0007944CDE9031011466846FFF7ABFA0FB04B
:1010C00000BD0000E5FFFFFF0A6802F8010B0A609F
:1010D0007047D1E900239A4202D2531C0B60107072
:1010E000704710B5436913B1AFF3008001E0FFF71B
:1010F000E2F9012010BD127800F124010A700022EB
:101100004A700122EDE711684FF0FF32E9E7000075
:101110002DE9FF5F15468A460446DFF8AC80F844A7
:101120000027D8E900103E46CDE9001010E03AF85B
:1011300016106A4602A800F0EFF9411C07D021788A
:10114000890603D5E269391891420DD80744761C07
:101150002078800602D5E069B84205DDAE42E6DBC4
:101160003AF816000028E2D1A069C01BA061204611
:10117000FFF77AF9D8E90010CDE90010002017E058
:101180003AF818106A4602A800F0C6F9B0F1FF3F1D
:1011900081460BD000250DF1080B05E0D4E90121B3
:1011A0001BF8050090476D1C4D45F7D308F1010071
:1011B000B0428046E4DB206A384420622046FFF7D4
:1011C00069F9BDE8FF9F0000267D00002DE9F04190
:1011D0008046D21D22F007020025D2E90002F5293F
:1011E00015A614D0011E72F1000106DA0023D0EB1F
:1011F000030063EB020211A608E0D8F800108B0789
:1012000001D50FA602E0490701D50EA6012511461A
:10121000002408F1240704E000F074F830323A5555
:10122000641C50EA0102F7D12B4632462146404663
:10123000BDE8F041FFF7B5BC000000002D00000044
:101240002B0000002000000030B4002100F1240435
:1012500008E002F00705D208303542EA4372DB08A5
:101260006554491C52EA0305F3D10468002310A217
:10127000250708D504F020040C4304D0C4690123D9
:101280000CA2641EC46130BCFFF78BBC10B50446D1
:1012900021461068FFF77CFC02462046BDE810405E
:1012A0000023D1E7D21D22F00701D1E90023CBE7CB
:1012B0000000000030000000004870470C120020C1
:1012C000004870472C120020004870470C12002084
:1012D000034640688C46002818BF88423CBF03463E
:1012E0004068F8D318681844884207D00CF103000E
:1012F00020F00700001D411A521A0146081D0A601D
:10130000FFF731B830B5B0F10A024FEA900E71F133
:1013100000034EEA817EB0EB0E0061EB91014FEAD3
:10132000101E4EEA017E10EB0E0041EB11114FEA48
:10133000102E4EEA016E10EB0E0041EB11214FEA28
:10134000104E4EEA014E10EB0E0041EB11414018D9
:1013500041F100014FEAD00040EA41704FEAD1016B
:1013600010EB80054FEA810444EA907444EB0104D9
:101370006D1944EB0404521BA3414FF0000348BF16
:101380000A3200D530BD401C41F1000130BD0000E3
:101390002DE9F0411F46044603260168072A01F49F
:1013A000006004DB08B116A505E016A503E008B14E
:1013B00015A500E015A521F010002060A069C01E51
:1013C000A0610FB1401EA0612046FFF74DF84FB15C
:1013D000D4E9012138469047206A401C2062C01C95
:1013E000206206E0206AFAE7D4E9012115F8010B32
:1013F0009047761EF8D22046FFF74CF8BDE8F08102
:101400004E414E006E616E00494E4600696E6600A8
:1014100010B5436913B1AFF3008001E0FFF778FE28
:10142000012010BD128800F1240182840022C284B0
:101430000122EDE711684FF0FF32E9E72DE9F047AF
:10144000814616468AB0334878440DC88DE80D00B1
:1014500030487844801C03AC0DC884E80D0041F688
:101460009B300844372190FBF1F290FBF1F5A5F198
:10147000800501FB12041B3C02D56442012000E000
:101480000020DFF890A080460027FA44AAF1BE0AA7
:101490000DE0E00709D03246684607EB47010AEB4A
:1014A000810100F0A8FB8DE8070064107F1C002C70
:1014B000EFD1184F7F44AC3F18E0E80714D007EB9A
:1014C00004100DF1180A90E80E008AE80E00C068BA
:1014D000F04201D198190890324606A903A800F0FD
:1014E0008AFB03AB83E807006D10641C002DE4D178
:1014F00032466946B8F1000F03A802D000F067FB3E
:1015000001E000F078FBC9E90001C9F808200AB041
:10151000BDE8F087887A000070B516460C4605468F
:10152000FFF7C8FA036893F80101012806D0FF2CE1
:101530000FD8185D68B101202C7070BDD3F8070179
:101540003246214603F2071303442846BDE87040A3
:1015500018474FF0FF3070BD10B500F039F8BDE806
:10156000104000F02FB870477546FFF7A5FEAE4655
:1015700005006946534620F00700854618B020B59F
:10158000FEF7B0FEBDE820404FF000064FF0000728
:101590004FF000084FF0000B21F00701AC46ACE81B
:1015A000C009ACE8C009ACE8C009ACE8C0098D4688
:1015B000704710B50446AFF300802046BDE81040E8
:1015C000FEF77BBE002801D000F06AB8704700002B
:1015D00010B5012805D0002103A000F067F8012014
:1015E00010BD09A1F8E7000053494752544D454D3D
:1015F0003A204F7574206F662068656170206D65B4
:101600006D6F7279000000003A2048656170206DAE
:10161000656D6F727920636F7272757074656400A6
:101620004FF0013C50F8042B51F8043B9A4221D171
:10163000A2EB0C03934313EACC1317D150F8042BFD
:1016400051F8043B9A4215D1A2EB0C03934313EAE1
:10165000CC130BD150F8042B51F8043B9A4209D11A
:10166000A2EB0C03934313EACC13DBD04FF0000042
:10167000704700BFD01A01BAB1FA81F101F0180128
:1016800022FA01F0CB40C1F12001DBB2C0B2C01A96
:101690002CFA01F3D11A914311EAC311E6D1704734
:1016A00001491820ABBEFEE72600020070B50546D2
:1016B0000C460A2000E06D1C00F011F835B12878C6
:1016C0000028F8D102E0641C00F009F814B1207879
:1016D0000028F8D1BDE870400A20AFF3008008B5BB
:1016E00069468DF800000320ABBE08BD5FEA400CE0
:1016F00008BF91F0000F4FEA8C234FEAC12243EA62
:1017000051514FEA1C5018BF00F5F0404FEA30002D
:1017100018BF41F000415FEA6C5C00F02980BCF129
:10172000FF3F08BF40F080407047130C06BF120413
:101730004FF0100C4FF0000C130E04BF12020CF10E
:10174000080C130F04BF12010CF1040C930F04BF1B
:1017500092000CF1020CD30F04BF52000CF1010CEB
:1017600011464FF00002A0F11F00A0EB0C007047E3
:1017700011F0004F08BF704731F000413FF4D5AF82
:101780000B0C06BF09044FF0100C4FF0000C0B0EB1
:1017900004BF09020CF1080C0B0F04BF09010CF186
:1017A000040C8B0F04BF89000CF1020CCB0F04BF9B
:1017B00049000CF1010CCCF12003A0EB0C0022FA43
:1017C00003F302FA0CF241EA030100F10100704751
:1017D00020F07F4C80EA030023F07F47ACEB070347
:1017E00003F57C5300F0004003F1FF032DE980492D
:1017F0004FEA154B09B44FEA144325EA0B4E24EA8D
:1018000003480FF2042606EB132749083E785FEAE7
:10181000320203FB0667C7F5000707FB06F64FEA2F
:1018200054374FEAD64606F1020607FB066CCCF1A8
:10183000005C4FEA1C472CEA074C07FB06F40CFB44
:1018400006F504EB15464FEA961634BF00204FF01C
:1018500000404FEAD13706FB07FC4FEA1C4C0CFB5B
:101860000BF7D21B03FB0CF761EB07010CFB0EF728
:10187000B0EB074072EB17420CFB08F734BFA2EB4A
:101880000742B2EB074261EB17414FEA0C444FEAC3
:10189000910706FB07FC4FEA1C4C0CFB0BF7B0EB67
:1018A000C74072EB573203FB0CF734BFA2EBC742C1
:1018B000B2EBC74261EB57310CFB0EF7B0EBC70040
:1018C00072EB57720CFB08F734BFA2EBC702B2EB06
:1018D000C70261EB5771039F4FEA816141EA9211A0
:1018E00004EBCC044FEAD1374FEA826206FB07FCD7
:1018F00042EA90124FEA80604FEA1C4C0CFB0BF757
:10190000D21B03FB0CF761EB07010CFB0EF7B0EBEE
:10191000074072EB17420CFB08F734BFA2EB0742FB
:10192000B2EB074261EB17414FEA8C554FEA910742
:1019300004EB9C2406FB07FC4FEA1C4C0CFB0BF74A
:10194000B0EBC74072EB573203FB0CF734BFA2EB8E
:10195000C742B2EBC74261EB57310CFB0EF7B0EB5D
:10196000C70072EB57720CFB08F734BFA2EBC7023B
:10197000B2EBC70261EB577115EB4C254FEA816161
:1019800041EA92114FEA82624FEAD13742EA90125D
:1019900006FB07FC44F100044FEA80604FEA1C4C50
:1019A0000CFB0BF7D21B03FB0CF761EB07010CFBE5
:1019B0000EF7B0EB074072EB17420CFB08F734BF91
:1019C000A2EB0742B2EB074261EB174115EB1C1586
:1019D0004FEA813141EA92414FEA823242EA904233
:1019E0004FEA80304FEA0C7644F1000448EA0343A2
:1019F0004EEA0B484FF0000EB2EB080C71EB0307F8
:101A000024BF624639464EEB0E0E4FF0000B001815
:101A1000524149414BEB0B0BB2EB080C71EB030746
:101A20007BF1000B24BF624639464EEB0E0E4FF0A1
:101A3000000B0018524149414BEB0B0BB2EB080C69
:101A400071EB03077BF1000B24BF624639464EEB76
:101A50000E0E51EA020718BF46F0010616EB0E768D
:101A600055F1000254F1000103D5BDE88901BDE83C
:101A70000088BDE88901BDE80048B619524141EB34
:101A80000101A3F10103704780807F7E7D7C7B7A1A
:101A90007978777676757473727171706F6E6E6D1A
:101AA0006C6C6B6A6A6968686766666564646363C0
:101AB00062616160605F5F5E5E5D5D5C5C5B5B5A46
:101AC0005A595958585757565655555554545353B3
:101AD00052525251515050504F4F4F4E4E4D4D4D0E
:101AE0004C4C4C4B4B4B4A4A4A4949494848484759
:101AF0004747474646464545454444444443434397
:101B00004342424242414141002B26D4770021D03A
:101B10001CB54FEA370703B44FF010004FF0100127
:101B20004FF000000FBCBDE810400BF1010BBBF102
:101B3000010F08BF5FEA170722BF12F1010211F17E
:101B400001014FF0004143F1000300F0004043EA7F
:101B500000007047F9D35708DAE746EA064613F162
:101B6000400F4FEA16461FDD13F1200FDFBF16436B
:101B70000A46002120335B42C8D0C3F1200746EA61
:101B8000064602FA07F74FEA164646EA0706C3F189
:101B9000200722FA03F201FA07F721FA03F14FF0C6
:101BA000000342EA0702B1E746EA020646EA0646B1
:101BB0004FEA164646EA0106BCBF46EA0646360C20
:101BC0004FF000034FF000024FF000019EE72DE9B7
:101BD000C048934630B491E8380007C831EA400C59
:101BE00048BF34EA430C03D5FFF7F2FDFFF78CFF43
:101BF000F0BCBDE800882DE9C048934630B491E8B8
:101C0000380007C810F0804F08BF13F0804F03D191
:101C100000F005F8FFF778FFF0BCBDE8008820F081
:101C20007F4780EA030023F07F4C07EB0C03A3F50A
:101C30007C5300F00040A3F1FE0392F0000F00F08F
:101C4000B38095F0000F00F077802DE901494FEA4D
:101C500011404FEA144621EA004800FB06FC24EA42
:101C6000064708FB06F607FB08F800FB07F718EB2A
:101C700006484CEB164C4FEA124B18EB07484FEA5C
:101C800015464CEB174022EA0B4E0BFB06FC25EAEF
:101C900006470EFB06F607FB0EFE0BFB07F71EEBD7
:101CA000064E4CEB164C4FF000061EEB074E4CEB6D
:101CB000174B18EB0B0840F1000018EB0E0B58EB1C
:101CC000000840F100008F1A4FF000013CBFC943EB
:101CD000661B14BFB5EB040C00213CBFC943F61BC7
:101CE0004FEA17444EEA8E0E27EA04454FEA1C4796
:101CF00004FB07622CEA074C05FB07F70CFB05F613
:101D000004FB0CFC16EB074642EB174216EB0C46A5
:101D100042EB1C421BEB060658EB0202414146EA2D
:101D20009E0601D5BDE80189B619524141EB01017A
:101D3000A3F10103BDE801894FEA14454FEA1147B9
:101D400024EA054621EA074C05FB07F406FB07F7E2
:101D50000CFB06F105FB0CFC11EB074144EB1744AF
:101D60004FEA124711EB0C4144EB1C4422EA074CAA
:101D700005FB07F206FB07F70CFB06F605FB0CFC60
:101D800016EB074642EB174216EB0C4642EB1C459E
:101D90006A1854F1000148BF7047B619524141EB2F
:101DA0000101A3F10103704795F0000F37D04FEA0E
:101DB00011424FEA144721EA024624EA074C02FB8B
:101DC00007F106FB07F70CFB06F402FB0CFC14EB17
:101DD000074441EB17414FEA154714EB0C4441EB24
:101DE0001C4125EA074C02FB07F506FB07F70CFB35
:101DF00006F602FB0CFC16EB074645EB174516EB07
:101E00000C4645EB1C42121951F1000148BF7047C6
:101E1000B619524141EB0101A3F1010370474FEAAA
:101E200014454FEA114724EA054621EA074C05FB11
:101E300007F106FB07F70CFB06F24FF0000605FB67
:101E40000CFC12EB074241EB174112EB0C4251EB39
:101E50001C4148BF7047921841EB0101A3F10103F7
:101E6000704721B1826842F00102826003E082681B
:101E700022F001028260704710B504461248844285
:101E800008D10121401502F0D3FD0021601502F0B8
:101E9000CFFD17E00D48844208D10121001502F062
:101EA000C7FD0021201502F0C3FD0BE00848844265
:101EB00008D10121C80302F0BBFD00214FF400400E
:101EC00002F0B6FD10BD00000024014000280140D2
:101ED000003C0140014600208A6802F004020AB179
:101EE000012000E0002070470146C86C80B27047B6
:101EF0000246002013680B400BB1012000E00020D7
:101F00007047014600208A6802F008020AB10120E9
:101F100000E000207047000030B50246002000239A
:101F200050680F4C20400D790C6844EA052420438A
:101F3000506090680B4C2040D1E902542C434D79FD
:101F400044EA450420439060D06A20F470000C7C81
:101F5000641EE4B2234340EA0350D06230BD000067
:101F6000FFFEF0FFFDF7F1FFF0B504460D4600203F
:101F70000021092D11DDE068A5F10A0606EB4607F0
:101F8000072606FA07F18843A5F10A0606EB46067E
:101F900003FA06F10843E0600CE0206905EB450711
:101FA000072606FA07F1884305EB450603FA06F112
:101FB00008432061072A0FDA606B561E06EB86077E
:101FC0001F2606FA07F18843561E06EB860605FA19
:101FD00006F10843606322E00D2A0FDA206BD61F5A
:101FE00006EB86071F2606FA07F18843D61F06EB85
:101FF000860605FA06F10843206310E0E06AA2F1C4
:102000000D0606EB86071F2606FA07F18843A2F1A4
:102010000D0606EB860605FA06F10843E062F0BD00
:10202000816841F008018160704721B1826842F403
:10203000A002826003E0826822F4A00282607047FE
:10204000816841F0040181607047000000B587B0ED
:1020500001214FF4017002F0DBFC4FF4004002F06C
:10206000ABFC1320ADF8040000208DF8070001A997
:10207000184800F0ABFC1848FFF7FEFE0020029065
:102080008DF80C0001208DF80D004FF460200490B5
:102090000020059002208DF8180002A90E48FFF7D5
:1020A0003BFF01210C48FFF7DCFE0B48FFF7B8FFB0
:1020B00000BF0948FFF725FF0028FAD10648FFF7BF
:1020C000BFFF00BF0448FFF705FF0028FAD107B0A3
:1020D00000BD000000080140002401402DE9F04748
:1020E000074689469046DDF820C0002100220024E2
:1020F00000260025002004460246014645E0002651
:1021000001E0491C761C614502D2585C2028F8D0B9
:10211000614500D13BE0ACEB0100022807D3585CDD
:102120000D2804D1481C185C0A2800D12CE0585C0A
:102130000A2800D128E01EB16FF02B00BDE8F0871F
:10214000585C3D2806D1601C0446022802D96FF075
:102150002B00F3E7585C7F2806DC585CDFF8E4A02E
:102160001AF800007F2802D16FF02B00E6E7585CD8
:10217000DFF8D0A01AF80000402803DA14B16FF09D
:102180002B00DBE7521C00BF491C6145B7D300BFE1
:102190001AB90020C8F80000D0E7D00800EB4000D2
:1021A0004FEA400A02F0070000EB40004000C01D6B
:1021B0000AEBD002121B0FB1914504D2C8F80020DF
:1021C0006FF02900BAE703240020064602463D4688
:1021D00031E018780D2805D018780A2802D0187830
:1021E000202800D125E01878DFF858A01AF8000060
:1021F000402801D1012000E00020241A1878DFF8DF
:1022000044A01AF8000066F39F100646501C0246D0
:1022100004280DD1002214B1300C05F8010B012C5B
:1022200002D9300A05F8010B022C01D905F8016B1F
:1022300000BF491E5B1C0029CBD1E81BC8F8000079
:1022400000207BE7FA8C00082DE9F04F074689460D
:10225000099C00250026AC46A846AA4600211CB9C8
:1022600000201060BDE8F08F0320B4FBF0F04FF0C9
:10227000030BB4FBFBFE0BFB1E4BBBF1000F02D0AC
:102280004FF0010B01E04FF0000B00EB0B06B6F135
:10229000804F05D34FF0FF3010606FF02900E1E769
:1022A000B600701C814500D327B9701C10606FF018
:1022B0002900D7E70320B4FBF0F000EB400600252F
:1022C000394629E013F801CB13F8018B13F801AB61
:1022D0002D484FEA9C0B10F80B0001F8010B4FEA58
:1022E0000C1000EB281000F03F00DFF89CB01BF84A
:1022F000000001F8010B4FEA880000EBAA1000F083
:102300003F001BF8000001F8010B0AF03F001BF82A
:10231000000001F8010BED1CB542D3D3A5422DD22C
:1023200013F801CB681CA04202D213F8010B00E0A5
:10233000002080461448CCF3850B10F80B0001F800
:10234000010B4FEA0C1000EB281000F03F00DFF803
:1023500038B01BF8000001F8010B681CA04207D23E
:102360003F2000EA88001BF8000001F8010B02E0A2
:102370003D2001F8010B3D2001F8010BC81B106046
:102380000020087000BF6DE7BA8C000808B5012175
:10239000082002F03DFB4FF48070ADF800001020E3
:1023A0008DF8030003208DF802006946054800F00F
:1023B0000DFB4FF48071034800F093FB002000F008
:1023C00003F808BD000C014010B5044622464FF446
:1023D0008071034800F089FB0248047010BD0000C2
:1023E000000C01408F0D002000BFFEE77047000089
:1023F00010B5022003F058F8002001F0EFFB102385
:1024000042A20021084601F06FFD03E04FF4FA708C
:1024100003F068FB43A145A000F070FA0028F5D155
:1024200010234EA2042101F05FFD41F2883003F039
:1024300059FB002001F0D2FB10234FA200210846D7
:1024400001F052FD41F2883003F04CFB032003F011
:102450002BF8002001F0C2FB10234CA200210846FB
:1024600001F042FD41F2883003F03CFB07E02DA172
:102470002EA000F043FA4FF4FA7003F033FB01F0A2
:1024800007FF0028F3D101F0A9FB4FF4FA6003F035
:1024900029FB00220221082001F05CFC012202211C
:1024A000182001F057FC02221146282001F052FCAE
:1024B00003220221382001F04DFC04220221482091
:1024C00001F048FC05220221582001F043FC0622BD
:1024D0000221682001F03EFC07220521102001F0B6
:1024E00039FC08220521202001F034FC09220521B5
:1024F000302001F02FFC0A220521402001F02AFCA7
:102500000B220521602001F025FC10BD436F6E6E8B
:10251000656374204D51545473205365727665720F
:102520002E2E2E00434F4E4E4543540041542B4314
:10253000495053544152543D22544350222C226D51
:10254000717474732E6865636C6F7564732E636F3A
:102550006D222C313838330D0A000000436F6E6E47
:10256000656374204D515454205365727665722012
:102570005375636365737300446576696365206CA6
:102580006F67696E202E2E2E00000000446576696C
:1025900063652053756363657373000038B50C225F
:1025A0000021084601F0D6FB0D220021102001F089
:1025B000D1FB0E220021202001F0CCFB0F220021B4
:1025C000302001F0C7FB10220021402001F0C2FBA7
:1025D00011220021502001F0BDFB122200216020B9
:1025E00001F0B8FB13220021702001F0B3FB14228C
:1025F0000221002001F0AEFB15220221102001F083
:10260000A9FB10233A220221202001F0D7FB0A2146
:10261000002000F089FA4F49888000F075FC00F036
:102620002FFC044605F04EFD4A49886010200090BA
:102630000846032302218268282001F011FC17229A
:102640000221402001F086FB18220221502001F0D7
:1026500081FB10233A220221602001F0AFFB0A2106
:10266000012000F061FA3C49888000F079FD00F01B
:1026700033FD044605F026FD3749886010200090A0
:102680000846032302218268682001F0E9FB1A2230
:102690000421002001F05EFB1B220421102001F028
:1026A00059FB1C220421202001F054FB1D2204218F
:1026B000302001F04FFB1E220421402001F04AFB94
:1026C000102003230090254804210268482001F0CF
:1026D000C7FB032322A20521602001F005FC1F2275
:1026E0000621002001F036FB20220621102001F0F7
:1026F00031FB21220621202001F02CFB2222062181
:10270000302001F027FB23220621402001F022FB8C
:102710000A21042000F008FA1249888000F09AFC8F
:1027200000F044FC044605F0CDFC0E498860102002
:1027300000900846032306218268482001F090FBA0
:10274000032307A20721602001F0CEFB5D2006498C
:10275000086038BDE80E0020F40E0020940D002023
:1027600050504D00000F00205000002010B54FF4D5
:1027700000710348FEF751F900200249088010BD9E
:102780000C100020A00D002070B50546002400BFED
:1027900000F002F980B90DA10E48FEF71BF80446BF
:1027A00054B13A212046FDF7F9FF044614B1641CE8
:1027B000204670BD0020FCE7052003F093F9281E99
:1027C000A5F101018DB2E3D100BFF2E74950442CDD
:1027D000000000000C10002010B5FFF7C7FF20A17B
:1027E000214802F08BFF03E04FF4FA7003F07AF90E
:1027F0001EA11FA000F082F80028F5D11EA11A48E2
:1028000002F07CFF03E04FF4FA7003F06BF917A1BC
:102810001CA000F073F80028F5D11EA1124802F0A8
:102820006DFF03E04FF4FA7003F05CF90FA11DA0F7
:1028300000F064F80028F5D11EA10B4802F05EFFFD
:1028400003E04FF4FA7003F04DF91DA11EA000F053
:1028500055F80028F5D123A1034802F04FFF10BD21
:10286000312E2041540D0A00003801404F4B00002A
:1028700041540D0A00000000322E2043574D4F44B2
:10288000450D0A0041542B43574D4F44453D310DF2
:102890000A000000332E2041542B43574448435034
:1028A0000D0A000041542B4357444843503D312CFE
:1028B000310D0A00342E2043574A41500D0A0000C2
:1028C000474F54204950000041542B43574A415030
:1028D0003D226A696E222C22313233343536373844
:1028E000220D0A00352E2045535038323636204905
:1028F0006E6974204F4B0D0A000000002DE9F04175
:1029000004460D46C8262046FDF79AFF87B23A4690
:1029100021460D4802F016FF0FE000F03DF848B9DF
:1029200029460A48FDF756FF20B1FFF71FFF002098
:10293000BDE8F0810A2003F0D5F8301EA6F10101B0
:10294000CEB2EAD10120F3E7004400400C10002091
:1029500030B589B004460D46FFF708FF2A4608A1A6
:1029600001A8FDF74FFD0AA101A8FFF7C7FF20B995
:102970002A462146074802F0E5FE09B030BD0000B6
:1029800041542B43495053454E443D25640D0A00A4
:102990003E000000004400400A48008808B90120B9
:1029A00070470848008808490988884203D10020F8
:1029B00004490880F4E7034800880349088001209F
:1029C000EEE70000A00D0020A20D00202DE9F0414F
:1029D000024600250026002000230024002791F84D
:1029E00003C00CF00F0591F803C00CF0100CBCF103
:1029F000000F03D091F802C04CEA050591F800C021
:102A0000BCF1000F31D0146800202BE04FF0010C16
:102A10000CFA00F3B1F800C00CEA03069E4220D184
:102A200083004FF00F0C0CFA03F7BC4305FA03FCCC
:102A30004CEA040491F803C0BCF1280F06D14FF012
:102A4000010C0CFA00FCC2F814C00AE091F803C0B3
:102A5000BCF1480F05D14FF0010C0CFA00FCC2F894
:102A600010C0401C0828D1D31460B1F800C0BCF1DC
:102A7000FF0F34DD546800202EE000F1080C4FF009
:102A8000010808FA0CF3B1F800C00CEA03069E42F4
:102A900021D183004FF00F0C0CFA03F7BC4305FA69
:102AA00003FC4CEA040491F803C0BCF1280F05D1E3
:102AB00000F1080C08FA0CF8C2F8148091F803C071
:102AC000BCF1480F07D100F1080C4FF0010808FADB
:102AD0000CF8C2F81080401C0828CED35460BDE822
:102AE000F08141617047016170470AB1016100E006
:102AF0004161704710B50446072301222146094869
:102B0000FFF732FA01210748FFF78FFA00BF0221D1
:102B10000448FFF7EDF90028F9D00248FFF7E4F97F
:102B200010BD0000002401402DE9F04107460C468D
:102B30000025002608E03846FFF7DCFF05440520A5
:102B400002F0D0FF701CC6B2A642F4DBB5FBF4F075
:102B500080B2BDE8F08100BFFEE7000010B54FF481
:102B6000A06001F031F802F02BFA02F099FF4FF467
:102B7000165002F0C1FC4FF4E13002F013FD4FF4A7
:102B8000165002F065FD1D4802681D4801881D4869
:102B900003F08CF81C4802681C4801881C4803F0AC
:102BA00095F81C4802681C4801881C4803F086F808
:102BB00000F03CF9FFF7EAFBFFF748FA01F02EF8C6
:102BC000082002F071FC102315A20021084601F034
:102BD0008BF94FF4FA7002F085FF002000F0FEFF41
:102BE000012002F061FC102312A20021084601F02E
:102BF0007BF9642002F076FF10BD00007800002011
:102C00007C000020E80E00208000002084000020CE
:102C1000F40E0020880000208C000020000F00200F
:102C2000486172647761726520696E6974202E2E26
:102C30002E000000486172647761726520696E69D8
:102C400074204F4B0000000010B501210748FFF72A
:102C50004AFF02210548FFF746FF02210348FFF71C
:102C600040FF01210148FFF73CFF10BD000C01406F
:102C700010B501210548FFF736FF02210348FFF791
:102C800030FF02210148FFF72EFF10BD000C01406C
:102C900010B501210348FFF726FF01210148FFF786
:102CA00020FF10BD000C014070B50025002405E098
:102CB0000D48005D2844C5B2601CC4B2052CF7DB8A
:102CC00009484079A84200D070BD07488178407813
:102CD00001EB002005490860084605A102680C4880
:102CE00002F00CFD00BFEFE70C0F0020940D002058
:102CF0004A575F526563656976655F446174615FD9
:102D000056616C75653A25642070706D0D0A00007F
:102D10000038014008B53EE09DF800002149224AF4
:102D20001278885420490978481CC11700EB1161BA
:102D30000912A0EB01211C4A11700A201B490870DE
:102D40001B480078012816D110460078062808D1C3
:102D5000002011460870FFF7A7FF002014490870F3
:102D600008BD11480078062804DD00200E490870CF
:102D70000F4908700FE09DF800002C280AD10C487C
:102D8000007838B92C2007490870012008490870DC
:102D90000549087000BF684601F0B4FF0028BBD1A8
:102DA00000BFDDE70C0F0020910D0020980D0020E2
:102DB000900D00200448006820B103480068401EC0
:102DC00001490860704700009C0D0020034800681E
:102DD00008B1012070470020FCE700009C0D002096
:102DE00000B5FFF7F3FF00B100BD0A2000F018F8AE
:102DF0000848007860B107480078401E054908700F
:102E00000846007820B9002003490870034908707B
:102E100000BFE9E7980D0020900D0020910D0020E3
:102E200001490860704700009C0D002008B5012191
:102E3000102001F0EDFD4FF40050ADF8000010201F
:102E40008DF8030003208DF8020069460348FFF760
:102E5000BDFD012000F004F808BD00000010014095
:102E600010B5044684F001024FF400510248FFF708
:102E70003CFE0248047010BD001001408E0000208E
:102E80002DE9FC5F1A49888805F03CF90546194987
:102E900005F04CF90446184905F052F882465146AF
:102EA000144805F00FFA0546514605F049F8044666
:102EB000124905F03BF983460D480168584605F074
:102EC0003FF8009004F0AEFF80464FF040420C4BBC
:102ED00003F02EFB06464FF020420A4B04F092FC12
:102EE000044604F0C7F901900198BDE8FC9F00007A
:102EF000E80E00203333534000F07F4500002041AE
:102F0000F753F7BF9B9458402DE9F04F85B01F4908
:102F1000888805F0F7F805461D4905F007F90446CD
:102F20001C4905F00DF804901948049905F0CAF9F8
:102F30000546049905F004F80446174905F0F6F82B
:102F4000039016480290029804F06CFF04460D4668
:102F50004FF06042124B1348134903F0E9FACDE9F0
:102F60000001039804F05EFF8046DDE9002304F0D1
:102F70006FFA064622462B4604F044FC824604F0D3
:102F800079F90249086005B0BDE8F08FE80E00202D
:102F90003333534000F07F45000020410000A03F44
:102FA000A7F2E5BFEBFA4F397209BA3F2DE9F04FAE
:102FB00089B02249888805F0A5F80546204905F022
:102FC000B5F804461F4904F0BBFF07901C48079959
:102FD00005F078F90546079904F0B2FF04461A494E
:102FE00005F0A4F806904FF07F500590059804F086
:102FF00019FF04460D4611480168069804F0A0FF29
:10300000019004F00FFF4FF04042104BCDE9020158
:1030100003F08EFA80464FF020420D4B04F0F2FB95
:10302000064622462B4604F0EDFB824604F022F9C8
:103030000490049809B0BDE8F08F0000000F002054
:103040003333534000F07F4500002041F753F7BF72
:103050009B9458402DE9F05F1849888805F052F894
:103060000546174905F062F80446164904F068FF62
:1030700082465146124805F025F90546514604F0AE
:103080005FFF0446104905F051F883464FF0604257
:103090000E4B0F480F4903F04BFA06460F465846B1
:1030A00004F0C0FE804632463B4604F0D1F90446A7
:1030B00004F0E0F801490860BDE8F09F000F00202F
:1030C0003333534000F07F4500002041A7F2E5BFB5
:1030D000EBFA4F397209BA3F2DE9FC5F1A4988882B
:1030E00005F010F80546194905F020F8044618497E
:1030F00004F026FF82465146144805F0E3F80546E1
:10310000514604F01DFF0446124905F00FF88346AE
:103110000D480168584604F013FF009004F082FE49
:1031200080464FF040420C4B03F002FA06464FF047
:1031300020420A4B04F066FB044604F09BF8019021
:103140000198BDE8FC9F0000F40E0020333353408B
:1031500000F07F4500002041F753F7BF9B94584093
:103160002DE9F04F85B02049888804F0CBFF054653
:103170001E4904F0DBFF04461D4904F0E1FE049003
:103180001A48049905F09EF80546049904F0D8FE03
:103190000446184904F0CAFF03904FF07F50029094
:1031A000029804F03FFE04460D464FF06042124B79
:1031B0001248134903F0BCF9CDE90001039804F06B
:1031C00031FE8046DDE9002304F042F9064622463E
:1031D0002B4604F017FB824604F04CF802490860C5
:1031E00005B0BDE8F08F0000F40E002033335340EB
:1031F00000F07F4500002041A7F2E5BFEBFA4F3910
:103200007209BA3F10B50446207B012802D120681C
:10321000FDF7A9F8002020606060A060207310BD59
:103220000246002301230DE002F07F000870D2095E
:103230002AB1087840F080000870491C01E0184667
:1032400070475B1C042BEFDD4FF0FF30F8E770B5E3
:1032500004460E460025206898B9012020733046A8
:10326000FDF752F820602068E0B100206060A660A1
:1032700003E00020216848556D1CA068A842F8D8DA
:1032800010E00220207303E00020216848556D1CE7
:10329000A068A842F8D800206060A068B04201D2BF
:1032A0000020206070BD00002DE9FF4F83B08246F2
:1032B0008B469146159C0025002002900F27019017
:1032C0004846FDF7BDFA0FFA80F8B9F1000F03D1B7
:1032D000012007B0BDE8F08F08F10200384487B242
:1032E000109808B145F00205129878B145F0040530
:1032F0001298FDF7A5FAC0B202901398FDF7A0FA54
:1033000001460298001D0844384487B2119820B144
:10331000012804D0022808D104E000BF07E045F0EE
:103320000C0504E045F0140501E00220D1E700BFE0
:10333000149808B145F02405BAF1000F02D0BBF192
:10334000000F01D10320C4E745F0C0055046FDF74A
:1033500077FA06465846FDF773FA3044001D3844A4
:1033600087B239462046FFF772FF206808B904206B
:10337000AFE739462068FDF750FB10216268501C0A
:10338000606020688154D4E90023D118781FFFF7CA
:1033900047FF00B201900198002804DA2046FFF7A9
:1033A00031FF052095E761680198084460600021BD
:1033B0006268501C60602068815404216268501C5F
:1033C0006060206881544D216268501C60602068F4
:1033D000815451216268501C6060206881545421DE
:1033E0006268501C6060206881546268501C606094
:1033F0002068815404216268501C606020688154F8
:103400006168481C6060206845540698010A62683B
:10341000501C6060206881540698C1B26268501CDC
:10342000606020688154C8F307216268501C6060A6
:10343000206881546268501C6060206800F8028037
:10344000D4E90012881842464946FDF7B1F9606890
:103450004044606005F00400B8B30026139808B932
:1034600038A013901298FDF7EBF986B2310A626822
:10347000501C6060206881546268501C6060206845
:103480008654D4E90012881832461299FDF790F953
:103490006068304460601398FDF7D2F986B2310A53
:1034A0006268501C6060206881546268501C6060D3
:1034B00020688654D4E90012881832461399FDF723
:1034C00077F960683044606000BF05F08000C8B1E3
:1034D0005046FDF7B5F986B2310A6268501C60604B
:1034E000206881546268501C606020688654D4E96A
:1034F0000012881832465146FDF75AF96068304488
:10350000606000BF05F04000C8B15846FDF798F96B
:1035100086B2310A6268501C60602068815462681B
:10352000501C606020688654D4E900128818324626
:103530005946FDF73DF960683044606000BF0020E7
:10354000C7E60000000000002DE9FF4F83B083466E
:1035500017469946139C00250026002002900190F2
:103560008046BBF1000F03D1012007B0BDE8F08F0A
:1035700000260AE00498805D232803D00498805D2B
:103580002B2801D10220F0E7761C0498805D0028EA
:10359000F0D148F03008119808B148F0010806EB66
:1035A0000900851C109820B1012804D002280AD1F6
:1035B00005E000BF09E048F00208AD1C05E048F056
:1035C0000408AD1C01E00320CFE700BF8FB33878BB
:1035D000022821D14FF0000A00BF50460AF1010A2B
:1035E000385C7D28F9D1AAF1030A0AF1070002909C
:1035F0000298A9EB000AE81CA0EB0A012046FFF79D
:1036000026FE206808B90420AFE7EA1CA2EB0A01F5
:103610002068FDF702FA19E0691D2046FFF717FE42
:10362000206808B90420A0E7691D2068FDF7F5F9B6
:103630000CE0FFE7691D2046FFF709FE206808B986
:10364000042092E7691D2068FDF7E7F96168481CCE
:103650006060206800F80180D4E9000281182846E3
:10366000FFF7DEFD01900198002804DA2046FFF7FD
:10367000C9FD052079E76168019808446060C6F3D8
:1036800007216268501C6060206881546268501C89
:10369000606020688654D4E9001288183246049984
:1036A000FDF786F8606830446060109860B14FEABA
:1036B0001B216268501C6060206881546268501C45
:1036C0006060206800F802B0C7B1387802280BD1DA
:1036D000D4E9001288183946029AFDF727F9616883
:1036E00002980844606009E0D4E9001288184A464C
:1036F0003946FDF71BF9606848446060002034E7F4
:103700002DE9F04190B004460D4616469846169FA6
:1037100023460CA2302104A80095FCF789FE012065
:103720000021CDE9000133460A4604A9CDE902078C
:103730000A20FFF709FF18B1012010B0BDE8F081A1
:103740000020FAE7247379732F25732F25732F74C4
:1037500068696E672F70726F70657274792F706F01
:10376000737400002DE9FF5F8046174699460E9C52
:103770000026B246B3460025B8F1000F03D1012060
:1037800004B0BDE8F09F0BE057F8250008B902200F
:10379000F6E757F82500FDF753F80644681CC5B254
:1037A0004D45F1DB09EB4900801C00EB060A0AF1EC
:1037B00005012046FFF74BFD206808B90320DFE72D
:1037C00082216268501C606020688154D4E9000244
:1037D00081185046FFF724FD0FFA80FBBBF1000F64
:1037E00004DA2046FFF70EFD0420C9E7606858445C
:1037F00060604FEA18216268501C60602068815444
:103800006268501C6060206800F80280002524E097
:1038100057F82500FDF714F80646C6F3072162683D
:10382000501C6060206881546268501C6060206891
:103830008654D4E90023D01857F825103246FCF7F7
:10384000B7FF6068304460600198C1B26268501C84
:10385000606020688154681CC5B24D45D8DB0020EB
:103860008EE7F0B504460D46264601230020106081
:10387000002114E0775C07F07F07106807FB030066
:103880001060705C00F0800008B9481CF0BDDB01DE
:10389000B3F5001F02D36FF00100F7E7491CA942FE
:1038A000E8DB4FF0FF30F1E701464878022801D00D
:1038B00001207047887810B18878012801D1C87834
:1038C000F7E7FF20F5E700002DE9FC5F81460D4694
:1038D00014461E46DDE90C8B99F8000000F00F0A33
:1038E000002001900AF008000090CAF341008BF814
:1038F000000001AA042109F10100FFF7B2FF4844CA
:10390000471C0198022802D30AF0010010B1FF20E1
:10391000BDE8FC9F7878397840EA01202080208833
:10392000801C0199884201D9FF20F1E754A1B81CFD
:10393000FCF750FF08B10F20EAE79BF8000020B128
:1039400001283DD0022877D13BE0009808B1FF2044
:10395000DEE72188481CFCF7D7FC2860286808B9F6
:10396000FF20D5E72288511C2868FDF756F82288E9
:10397000B91C2868FCF7DAFF0198801E2188401ADC
:10398000A8F80000B8F80010481CFCF7BDFC306037
:10399000306820B92868FCF7E6FCFF20B8E7B8F8E3
:1039A0000020511C3068FDF738F8B8F80020B4F852
:1039B00000C0BB1C0CEB03013068FCF7B7FF4FE005
:1039C00000BF2088801C0199884201D9FF209FE711
:1039D0002088C01C395C2088801C385C41EA0021AA
:1039E0000E9801800E9808B9FF2091E72188481CA5
:1039F000FCF78AFC2860286808B9FF2088E722883D
:103A0000511C2868FDF709F82288B91C2868FCF7C2
:103A10008DFF0198001F2188401AA8F80000B8F80F
:103A20000010481CFCF770FC3060306828B928682A
:103A3000FCF799FCFF206BE710E0B8F80020511C60
:103A40003068FCF7EAFFB8F80020B4F800C03B1D6E
:103A50000CEB03013068FCF769FF01E0FF2057E73A
:103A600000BF2B212846FCF799FE20B923212846C8
:103A7000FCF794FE08B1FF204AE7002048E7000069
:103A8000246372657100000001464878022801D065
:103A900001207047887820B9C8780A2801D1002011
:103AA000F7E70120F5E70000F8B50446FF27207886
:103AB0000511012D01DB0E2D01DD3846F8BD032D6A
:103AC00024D1002000906A460421601CFFF7C9FE43
:103AD0002044461C0098022803D3207800F00100FF
:103AE00008B1FF20EAE77078317840EA0120801CB5
:103AF0000099884201D9FF20E0E706A1B01CFCF73D
:103B000069FE08B10F2700E0032700E02F46384682
:103B1000D4E7000024637265710000000146FF20B5
:103B20008A78A2B9CA78142A11D10A7932B1012A45
:103B300005D0022A04D0802A06D103E000BF00BFCE
:103B4000002003E0012001E0022000BF00BF704719
:103B500000BFFEE77047000070B5002100230F2270
:103B6000C47804B3154C246804F4E064C4F5E0643C
:103B7000210AC1F10403CA40447804FA03F18478AD
:103B80001440214309010E4C0678A155047804F035
:103B90001F050124AC4005786D11AD0005F1E0254D
:103BA000C5F8004109E0047804F01F050124AC4089
:103BB000044D0678761145F8264070BD0CED00E006
:103BC00000E400E080E100E002490143024A1160A4
:103BD000704700000000FA050CED00E070B50646E5
:103BE000002418E004F1B000002100F09AF900214F
:103BF000084600F096F90021102000F092F9002507
:103C000005E00121304600F08CF9681CC5B2802D1A
:103C1000F7DB601CC4B2082CE4DB70BD08B50121E1
:103C2000082000F0F5FE0320ADF8000010208DF80C
:103C3000030003208DF8020069463B48FEF7C6FEEC
:103C400003213948FEF74FFFC82001F04BFF002148
:103C5000AE2000F066F90021084600F062F900216C
:103C6000102000F05EF90021402000F05AF90021F8
:103C7000B02000F056F90021812000F052F9002117
:103C8000FF2000F04EF90021A12000F04AF90021A8
:103C9000A62000F046F90021A82000F042F90021FA
:103CA0003F2000F03EF90021C82000F03AF9002141
:103CB000D32000F036F90021084600F032F9002147
:103CC000D52000F02EF90021802000F02AF90021F3
:103CD000D82000F026F90021052000F022F900216B
:103CE000D92000F01EF90021F12000F01AF900217E
:103CF000DA2000F016F90021122000F012F900215C
:103D0000DB2000F00EF90021302000F00AF900213C
:103D10008D2000F006F90021142000F002F90021A6
:103D2000AF2000F0FEF808BD000C014070B504465D
:103D30000D4605F1B000002100F0F3F8102141EA32
:103D40001410002100F0EDF804F00F00002100F045
:103D5000E8F870BD2DE9F04180460E461546002773
:103D600031464046FFF7E2FF00240AE0124A02EB28
:103D70008511085D012100F0D4F8781CC7B2601CE1
:103D8000C4B2102CF2DB701CC1B24046FFF7CEFF6C
:103D900000240CE06900491C074A02EB4111085D50
:103DA000012100F0BEF8781CC7B2601CC4B2102C10
:103DB000F0DBBDE8F08100008F0000202DE9F04726
:103DC00007460E469046994600250024A8F120009B
:103DD000C5B27F2F02DD0027B01CC6B2B9F1100FAB
:103DE00024D131463846FFF7A1FF002408E004EB58
:103DF0000511194A505C012100F093F8601CC4B20F
:103E0000082CF4DB701CC1B23846FFF78FFF00248A
:103E100009E004EB051108310F4A505C012100F064
:103E200080F8601CC4B2082CF3DB12E0314638463F
:103E3000FFF77CFF00240AE005EB4501074A02EB8F
:103E40004101085D012100F06CF8601CC4B2062C31
:103E5000F2DBBDE8F0870000CA860008A2840008F3
:103E60002DE9FF5F074691461E460E9D4FF0000A62
:103E7000002435E0301B401EC1B20A2001F0C0FF13
:103E8000B9FBF0F00A21B0FBF1F201FB1208BAF124
:103E9000000F14D1701EA04211DDB8F1000F0CD13B
:103EA000AB4605EBDB71491001FB0471C8B22B4630
:103EB00020220199FFF782FF10E04FF0010AAB4684
:103EC00005EBDB71491001FB0471C8B208F1300148
:103ED000CAB22B460199FFF771FF00BF601CC4B244
:103EE000B442C7DBBDE8FF9F2DE9F04104460F4611
:103EF0001546984600260FE0AA5D434639462046FF
:103F0000FFF75CFF04F10800C4B2782C02DD002446
:103F1000B81CC7B2701CC6B2A85D0028ECD1BDE8C1
:103F2000F08170B504460D461DB1E0B201F064FCAD
:103F300002E0E0B201F04AFC70BD0000F0B58BB0C9
:103F40000546002600242846FCF77AFCC7B20DB1CE
:103F50001C2F02DA01200BB0F0BD06E0A85D01A91C
:103F600088550020A855701CC6B2BE42F6DB002062
:103F700001A988550026002455E001A8805D2B2862
:103F800010D008DC202814D023282ED0252825D0B6
:103F900026283FD130E02F2812D03D2833D03F28AB
:103FA00038D114E0281923A1FCF7B4FCE01CC4B2FA
:103FB00036E0281920A1FCF7ADFCE01CC4B22FE0CC
:103FC00028191EA1FCF7A6FCE01CC4B228E02819A1
:103FD0001BA1FCF79FFCE01CC4B221E0281919A129
:103FE000FCF798FCE01CC4B21AE0281916A1FCF7F3
:103FF00091FCE01CC4B213E0281914A1FCF78AFC60
:10400000E01CC4B20CE0281911A1FCF783FCE01CF1
:10401000C4B205E001A8805D2855601CC4B200BF91
:1040200000BF701CC6B2BE42A7DB0020285500BFEF
:1040300091E700002532420025323000253246004B
:10404000253346002532350025323300253236002F
:10405000253344002DE9F04FC9B005460C461646FD
:104060001F460DF5A47898E8000F0020489055B140
:104070004CB13F48864206D32FB1B9F1000F02D0B0
:10408000BAF1780F03DA012049B0BDE8F08F402182
:1040900018A8FCF7E4FC3846FCF7D2FB05903B4639
:1040A00048AA4021009018A8FEF718F8482106A851
:1040B000FCF7D5FCBBF1000F09D02EA033462FA290
:1040C00048218DE8310006A8FCF7B2F909E029A0E3
:1040D000334630A248218DE81101039506A8FCF76C
:1040E000A7F9402128A8FCF7BAFC06A8FCF7A8FB12
:1040F000059018A8FCF7A4FB049028A8009006AA35
:1041000018A8DDE9041301F039FD00204890402192
:1041100038A8FCF7A4FC28A8FCF792FB059028AB74
:1041200048AA4021009038A8FEF78EF838A8FFF77B
:1041300005FFBBF1000F0CD038A80EA12B461DA225
:10414000CDE90046CDE9021051464846FCF770F92A
:104150000CE038A807A12B46244ACDE9018600943B
:10416000CDE9031051464846FCF762F900208BE781
:104170009554415D736861310000000025640A2593
:10418000730A70726F64756374732F25730A2573D5
:104190000000000025640A25730A70726F6475635D
:1041A00074732F25732F646576696365732F257388
:1041B0000A25730076657273696F6E3D25732672EA
:1041C00065733D70726F647563747325253246257F
:1041D000732665743D2564266D6574686F643D259E
:1041E00073267369676E3D2573000000EC8E00082E
:1041F00000B595B00020119012901390149003A870
:10420000029010A010A313A23821009003A8FCF77D
:104210000FF903AA17A11D4801F070FA11A8012394
:1042200002AA002100901420FFF79CFA38B9129AD4
:1042300091B21198FEF78CFB11A8FEF7E3FF15B0C1
:1042400000BD0000443100004346634D49515944CC
:1042500052610000247379732F25732F25732F74F7
:1042600068696E672F70726F70657274792F7365ED
:104270007400000053756273637269626520546F45
:104280007069633A2025730D0A0000000038014070
:1042900030B5B3B000202F9030903190329001258E
:1042A000A02107AA37A3CDE90032CDE9021036A339
:1042B000414A42A144A0FFF7CDFE07A83FA331A287
:1042C00044A100904F4801F019FA2FA80021029153
:1042D0000391CDE90410084601210B0229A2CDE982
:1042E000001007A935A0FEF7DFFF002842D1309A61
:1042F00091B22F98FEF72CFBFA20FEF745FA044600
:10430000002C33D02046FFF7CFFB02282ED12046C9
:10431000FFF7CAFA062823D2DFE800F003090E13DC
:10432000181D39A1374801F0E9F900251DE03BA12E
:10433000344801F0E3F918E03FA1324801F0DEF91A
:1043400013E046A12F4801F0D9F90EE04BA12D480A
:1043500001F0D4F909E052A12A4801F0CFF904E0B4
:104360005AA1284801F0CAF900BF00BF2FA8FEF7E4
:1043700049FF03E05CA1234801F0C0F9284633B0AF
:1043800030BD00004431000051304931556D525765
:10439000536B74525747356863444E6D596E4E7077
:1043A00052474E6D59555A445546704C62585A52B0
:1043B0006333493D0000000000CF9D744346634DC8
:1043C0004951594452610000323031382D31302D7D
:1043D000333100004F6E654E45545F4465764C693D
:1043E0006E6B0D0A4E414D453A2025732C095052F3
:1043F0004F49443A2025732C094B45593A25730DF2
:104400000A00000000380140546970733A09C1ACD9
:10441000BDD3B3C9B9A60D0A000000005741524EE2
:104420003A09C1ACBDD3CAA7B0DCA3BAD0ADD2E9BA
:10443000B4EDCEF30D0A00005741524E3A09C1AC1B
:10444000BDD3CAA7B0DCA3BAB7C7B7A8B5C4636C5D
:1044500069656E7469640D0A000000005741524E90
:104460003A09C1ACBDD3CAA7B0DCA3BAB7FECEF13E
:10447000C6F7CAA7B0DC0D0A000000005741524E33
:104480003A09C1ACBDD3CAA7B0DCA3BAD3C3BBA79A
:10449000C3FBBBF2C3DCC2EBB4EDCEF30D0A0000EC
:1044A0005741524E3A09C1ACBDD3CAA7B0DCA3BA3A
:1044B000B7C7B7A8C1B4BDD328B1C8C8E7746F6B7C
:1044C000656EB7C7B7A8290D0A0000004552523AD9
:1044D00009C1ACBDD3CAA7B0DCA3BACEB4D6AAB4C6
:1044E000EDCEF30D0A0000005741524E3A094D51EE
:1044F00054545F5061636B6574436F6E6E65637493
:10450000204661696C65640D0A00000010B58CB02E
:10451000044630216846FCF7A2FA36A12046FCF793
:104520006BF930216846FCF79AFA3848007808B1F0
:1045300037A000E038A0024639A16846FBF762FFC9
:1045400069462046FCF7E6F930216846FCF787FA11
:1045500039483AA182686846FBF754FF694620460D
:10456000FCF7D8F930216846FCF779FA384839A1C8
:1045700082686846FBF746FF69462046FCF7CAF9A1
:1045800030216846FCF76BFA374838A10268684664
:10459000FBF738FF69462046FCF7BCF93021684636
:1045A000FCF75DFA364837A182686846FBF72AFFB8
:1045B00069462046FCF7AEF930216846FCF74FFA11
:1045C0001248007808B112A000E013A0024632A100
:1045D0006846FBF717FF69462046FCF79BF933A1B5
:1045E0002046FCF797F92046FCF72AF9C0B20CB038
:1045F00010BD00007B226964223A22313233222C22
:1046000022706172616D73223A7B00008F0D002071
:10461000747275650000000066616C7365000000CF
:104620002242454550223A7B2276616C7565223ADA
:1046300025737D2C00000000E80E00202243483442
:10464000223A7B2276616C7565223A25647D2C00C6
:10465000000F002022434F223A7B2276616C756561
:10466000223A25647D2C0000940D002022434F3215
:10467000223A7B2276616C7565223A25647D2C0096
:10468000F40E0020224832223A7B2276616C756556
:10469000223A25647D2C0000226C6564223A7B223C
:1046A00076616C7565223A25737D00007D7D000082
:1046B0002DE9F04788B080460020079006900590CD
:1046C00004900390002500274046FFF7EDF90546CA
:1046D00049A14D4801F012F8032D04D0042D5CD0FF
:1046E000092D72D162E0494803A904AA07ABCDE9BC
:1046F0000021029005AA06A94046FFF7E5F8074603
:10470000002F49D1BDF810000799CDE90010BDF880
:1047100014303FA13C48069A00F0F0FF079801F0E2
:104720005FF9814649A1484601F03AF9824649A11C
:10473000504601F035F9064648A1504601F030F9DF
:10474000044696B146A1304800F0D8FFF068012831
:1047500005D1FDF739FE01204349086005E000203E
:10476000FDF732FE00204049086094B13FA1264881
:1047700000F0C4FFE068012805D1FEF771FB0120BD
:104780003949086005E00020FEF76AFB0020364941
:104790000860484601F0D8F800BF4046FFF774F9BA
:1047A00018B934A1184800F0A9FF11E04046FFF7FE
:1047B000B5F920B937A1144800F0A0FF03E03CA1EF
:1047C000114800F09BFF03E0FFE74FF0FF3700BF09
:1047D00000BFFDF7CBFF781C10B908B0BDE8F0872B
:1047E0000F2D01D0032D05D10698FBF7BCFD0798CE
:1047F000FBF7B9FD00BFF0E74F6E654E65745F5281
:10480000657650726F0D0A0000380140B00D00202F
:10481000746F7069633A2025732C20746F7069631C
:104820005F6C656E3A2025642C207061796C6F6135
:10483000643A2025732C207061796C6F61645F6C21
:10484000656E3A2025640D0A0000000070617261F7
:104850006D73000042454550000000006C65640027
:10486000626565700D0A0000580000206C65640DDB
:104870000A000000546970733A094D515454205095
:1048800075626C6973682053656E64204F4B0D0A26
:1048900000000000546970733A094D51545420537C
:1048A0007562736372696265204F4B0D0A000000E8
:1048B000546970733A094D515454205375627363AF
:1048C00072696265204572720D0A000030B5C5B08C
:1048D00000204190429043904490002400251CA168
:1048E000234800F00BFF4FF4807101A8FCF7B7F8E4
:1048F00001A8FFF70BFE0446002C26D041A8002398
:1049000022461CA100901CA0FEF7FAFEC8B908E0E0
:1049100001A8415D429A501C429041988154681C04
:1049200005B2A542F4DB429A91B24198FEF710F825
:1049300014A10F48429A00F0E1FE41A8FEF762FC84
:1049400003E014A10A4800F0D9FE45B030BD0000D4
:10495000546970733A094F6E654E65745F53656EA6
:1049600064446174612D4D5154540D0A00000000DF
:1049700000380140443100004346634D49515944D9
:104980005261000053656E6420256420427974658D
:10499000730D0A005741524E3A094544505F4E6527
:1049A00077427566666572204661696C65640D0ABA
:1049B000000000007047000001460020034A5068D4
:1049C00020F440400843506070470000001002404F
:1049D00029B1064AD2690243044BDA6104E0034A72
:1049E000D2698243014BDA61704700000010024037
:1049F00029B1064A12690243044B1A6104E0034AD2
:104A000012698243014B1A61704700000010024096
:104A100029B1064A92690243044B9A6104E0034AB1
:104A200092698243014B9A61704700000010024076
:104A300029B1064AD2680243044BDA6004E0034A13
:104A4000D2688243014BDA607047000000100240D8
:104A500030B500210022002400232D4D6D6805F0A3
:104A60000C0121B1042905D0082923D105E0294DE5
:104A7000056022E0274D05601FE0254D6D6805F4B7
:104A80007012234D6D6805F48034022505EB9242C7
:104A90001CB9214D554305600BE01D4D6D6805F4B3
:104AA00000351DB11C4D5543056002E0194D5543BD
:104AB000056002E0174D056000BF00BF144D6D6832
:104AC00005F0F0010909154D6B5C0568DD40456096
:104AD0000F4D6D6805F4E061090A104D6B5C456887
:104AE000DD4085600A4D6D6805F46051C90A0B4DC3
:104AF0006B5C4568DD40C560054D6D6805F440415F
:104B0000890B074D6B5CC568B5FBF3F5056130BDDE
:104B10000010024000127A0000093D002800002029
:104B20003800002038B50A210020FDF7FDFF244998
:104B30008880FEF7A5F9044603F0C4FA204988608E
:104B40000A210420FDF7F0FF1E498880FEF72EFAA7
:104B5000044603F0B7FA1B4988600A210120FDF7DB
:104B6000E3FF19498880FEF7B7FA044603F0AAFA72
:104B700015498860102000901148032302218268A3
:104B80002820FFF76DF9102000900F480323022121
:104B900082686820FFF764F91020032300900B4817
:104BA000042102684820FFF75BF9102000900548B7
:104BB0000323062182684820FFF752F938BD000020
:104BC000E80E0020000F0020F40E0020940D0020BD
:104BD00010B52048007801283BD11F4802781FA15A
:104BE000214800F08BFD4FF4FA7000F07BFF1A486B
:104BF000007808282CD2DFE800F02B040F13171BD5
:104C00001F26002019490860FDF7DEFB4FF4005114
:104C10001748FDF768FF1BE001201449086017E002
:104C200015201449088013E01820134908800FE06C
:104C30001B20124908800BE000F024F84FF47A7032
:104C400000F050FF04E04FF4E1700D49088000BF10
:104C500000BF10BD2600002027000020CFFBCFA200
:104C6000A3BA25640D0A0000003801405800002056
:104C7000001001406000002062000020640000205D
:104C80006600002010B500240A2094FBF0F100FB20
:104C90001140C8B911488168042000F0F9FB0F48A1
:104CA0000FA18268124800F029FD12488168052092
:104CB00000F0EEFB10488168062000F0E9FB0F4889
:104CC0000168072000F0E4FB0A2000F00BFF601CE5
:104CD000C4B2142C00D1002410BD0000E80E002046
:104CE000BCD7CDE9B4ABD6B5A3BA25640D0A000094
:104CF00000380140F40E0020000F0020940D002029
:104D00007047000001460D4800780D4A1278904225
:104D100001D1002070470B48094A1278805C087066
:104D2000074A1278501CC21700EB12621212A0EB55
:104D30000222034B1A700120ECE70000240000203F
:104D400025000020C00D002010B500F001F810BDB6
:104D50000CB50020019000903348006840F480308A
:104D60003149086000BF3048006800F4003000900E
:104D70000198401C0190009818B90198B0F5A06FF7
:104D8000F1D12948006800F4003010B101200090F2
:104D900001E0002000900098012843D123480068DA
:104DA00040F01000214908600846006820F0030028
:104DB00008600846006840F0020008601A48406831
:104DC000194948600846406848600846406840F411
:104DD000806048600846406820F47C1048600846BF
:104DE000406840F4E81048600846006840F0807071
:104DF000086000BF0C48006800F000700028F9D07F
:104E00000948406820F003000749486008464068A8
:104E100040F00200486000BF0348406800F00C000A
:104E20000828F9D10CBD000000100240002002400B
:104E3000042808D14FF0E021096941F004014FF046
:104E4000E022116107E04FF0E021096921F004013F
:104E50004FF0E022116170477047000010B5134811
:104E6000006840F001001149086008464068104998
:104E700008400E494860084600680E4908400B4942
:104E800008600846006820F48020086008464068F2
:104E900020F4FE0048604FF41F008860FFF754FFC5
:104EA0004FF000600449086010BD0000001002408F
:104EB0000000FFF8FFFFF6FE08ED00E010B501214D
:104EC000334800F0C2F8002860D032480068401C27
:104ED0003049086042F21071B0FBF1F201FB1200A0
:104EE00068B92D4800685A2809D82B480068401C2A
:104EF0002949086029480068401E2849086026485A
:104F000000685A283ED92648006801283AD1254829
:104F100080682549098888420BD224488068244942
:104F20000988884205D22348806823490988884235
:104F300025D322480068401C2049086008460068C4
:104F4000B0F5FA7F06DC0120FDF73EFA0120FDF7FF
:104F500087FF17E019480068B0F57A7F06DC00206B
:104F6000FDF732FA0020FDF77BFF0BE013480068E5
:104F7000B0F57A7F06DD00201049086002E00020CD
:104F80000E4908600121024800F050F810BD0000F1
:104F9000000800405400002050000020480000207D
:104FA00058000020E80E002060000020000F0020C4
:104FB00064000020F40E0020620000204C0000205D
:104FC0001FB501210420FFF703FD174800F057F833
:104FD0000020ADF80A00ADF8060041F61F40ADF81C
:104FE00008000020ADF804008DF80C0001A90E485F
:104FF00000F04CF8012211460B4800F037F81E2053
:105000008DF8000001208DF8030000208DF80100CC
:1050100001208DF802006846FEF79EFD012102483E
:1050200000F007F81FBD000000080040CA430282DC
:10503000704721B1028842F00102028004E0028838
:105040004FF6FE731A400280704730B502460020CA
:1050500000230024158A05EA0103958905EA010465
:1050600013B10CB1012000E0002030BD1AB18389DA
:105070000B43838102E083898B43838170470189DD
:105080004FF6F8721140018170470000002202883B
:105090001D4B98420ED01D4B98420BD0B0F1804F63
:1050A00008D01B4B984205D01A4B984202D01A4B9D
:1050B000984204D14FF68F731A404B881A43174B0E
:1050C000984207D0164B984204D04FF6FF431A403F
:1050D000CB881A4302808B8883850B8803850A4B13
:1050E00098420BD0094B984208D00E4B984205D0FD
:1050F0000D4B984202D00D4B984201D10B7A03869A
:105100000123838270470000002C014000340140DD
:105110000004004000080040000C00400010004067
:10512000001400400040014000440140004801409C
:1051300010B540F225510D4800F0E5F8A8B10B4834
:1051400000F09CF90A490B4A1278885409490978F9
:10515000481CC11700EB11610912A0EB0121054A9F
:1051600011702021014800F05DF810BD00380140A9
:10517000C00D00202400002010B540F225510E483B
:1051800000F0C1F8B8B10D480088B0F5007F02D337
:1051900000200A4908800848001D0088C1B207485D
:1051A00002880088401C054B188005488154202146
:1051B000014800F037F810BD00440040A00D002069
:1051C0000C10002010B5002440F22551064800F0D4
:1051D0009AF840B1044800F051F9C4B20348047091
:1051E00001200349087010BD00480040270000203E
:1051F0002600002010B5044600BF8021084800F0BA
:1052000075F80028F9D02146054800F03CF900BFA8
:105210004021034800F06AF80028F9D010BD0000D2
:105220000048004001F40072B2F5007F00D100BFD9
:10523000CA430280704721B1828942F400528281C0
:1052400004E082894DF6FF731A40828170470000A6
:1052500010B504462048844209D101218803FFF794
:10526000E7FB00214FF48040FFF7E2FB32E01B48F0
:10527000844209D101214804FFF7BAFB00214FF411
:105280000030FFF7B5FB25E01548844209D1012124
:105290008804FFF7ADFB00214FF48020FFF7A8FB47
:1052A00018E01048844209D10121C804FFF7A0FB8F
:1052B00000214FF40020FFF79BFB0BE00A488442DB
:1052C00008D101210805FFF793FB00214FF480105E
:1052D000FFF78EFB10BD0000003801400044004085
:1052E00000480040004C00400050004002460020B2
:1052F000B1F5007F00D100BF13880B400BB1012036
:1053000000E00020704770B502460024002300250D
:10531000002040F66A16B14200D100BFC1F3421529
:1053200001F01F03012606FA03F3012D02D196892D
:10533000334006E0022D02D1168A334001E0968AFE
:1053400033400C12012606FA04F41688344013B1D7
:105350000CB1012000E0002070BDF0B50346002430
:1053600000260025002040F66A17B94200D100BF90
:105370001846C1F3421401F01F06012707FA06F58B
:10538000012C01D10C3004E0022C01D1103000E0DE
:1053900014301AB107682F43076002E00768AF4373
:1053A0000760F0BD2DE9F04786B005460E460024A3
:1053B000A24600BFA1460027B08900B100BF2F461A
:1053C0002C8A4CF6FF700440F08804432C82AC8990
:1053D0004EF6F3100440B0883189084371890843C0
:1053E0000443AC81AC8A4FF6FF400440B0890443CB
:1053F000AC8201A8FFF72CFB1F48874202D1DDF8E1
:1054000010A001E0DDF80CA0A88900F4004040B134
:105410000AEBCA0000EB0A1031684900B0FBF1F852
:1054200007E00AEBCA0000EB0A1031688900B0FB04
:10543000F1F86420B8FBF0F004012009642101FBBD
:105440001089A88900F4004040B1322000EBC90067
:10545000B0FBF1F000F00700044308E0322000EB5D
:1054600009106421B0FBF1F000F00F0004432C811F
:1054700006B0BDE8F087000000380140014688888A
:10548000C0F308007047C1F3080282807047000033
:1054900070B505460C46034805604460022000F0E4
:1054A0000DF870BDC00E002010B50446024804601F
:1054B000012000F003F810BDC00E002070B50546B5
:1054C0000024AA20FFF796FE5520FFF793FE00BFA9
:1054D00005E0074911F82400FFF78CFE641CAC427C
:1054E000F7DB5520FFF786FEAA20FFF783FE70BD8D
:1054F000C00E002000BFFEE710B586B004460121B3
:1055000044F20400FFF784FA2448FFF7A1FE4FF4A9
:105510000070ADF8140003208DF8160018208DF8E7
:10552000170005A91E48FDF751FA4FF48060ADF849
:10553000140004208DF8170005A91948FDF746FA54
:105540004FF4165001900020ADF80800ADF80A00A5
:10555000ADF80C00ADF810000C20ADF80E0001A95C
:105560000E48FFF71FFF012240F225510B48FFF7BD
:10557000F4FE01210948FFF75EFE25208DF80000AA
:1055800003208DF801008DF8020001208DF8030042
:105590006846FEF7E1FA06B010BD00000038014091
:1055A0000008014010B586B0044601210420FFF731
:1055B0002FFA01214804FFF70BFA18208DF8170085
:1055C0000420ADF8140003208DF8160005A91E482C
:1055D000FDF7FCF904208DF817000820ADF8140041
:1055E00003208DF8160005A91748FDF7EFF901947F
:1055F0000020ADF810000C20ADF80E000020ADF832
:105600000C00ADF80A00ADF8080001A90F48FFF73B
:10561000C9FE01210D48FFF70EFE012240F225517F
:105620000A48FFF79AFE26208DF8000001208DF829
:10563000030000208DF801008DF802006846FEF797
:105640008BFA06B010BD0000000801400044004085
:1056500010B586B0044601210820FFF7D9F90121D1
:105660008804FFF7B5F918208DF817004FF4806013
:10567000ADF8140003208DF8160005A91D48FDF7AC
:10568000A5F904208DF817004002ADF8140003209E
:105690008DF8160005A91748FDF798F90194002028
:1056A000ADF810000C20ADF80E000020ADF80C0095
:1056B000ADF80A00ADF8080001A90F48FFF772FE27
:1056C00001210D48FFF7B7FD012240F225510A489C
:1056D000FFF743FE27208DF8000001208DF803001E
:1056E0008DF8010000208DF802006846FEF734FABC
:1056F00006B010BD000C0140004800400FB430B5AA
:10570000CBB0054601AC50A800904FF4947101A8AD
:10571000009B4F9AFAF75CFE002000900BE014F813
:10572000011B2846FFF7AFFE00BF40212846FFF7C8
:10573000DDFD0028F9D020780028F0D14BB030BC36
:105740005DF814FB2DE9F04107460C46154600268E
:105750000DE014F8011B3846FFF795FE00BF40210D
:105760003846FFF7C3FD0028F9D0701C86B2AE4260
:10577000EFDBBDE8F08100002DE9F04105462C4645
:1057800001211148FDF7ADF9002619E0274607F081
:105790008007802F04D102210B48FDF7A4F903E014
:1057A00002210948FDF79DF96006040E0121064813
:1057B000FDF799F901210448FDF793F9701CC6B271
:1057C000082EE3DBBDE8F081000C014010B5044673
:1057D000FDF73AFA7820FFF7CFFFFDF759FA0020DE
:1057E000FFF7CAFFFDF754FA2046FFF7C5FFFDF7A4
:1057F0004FFAFDF73DFA10BD10B50446FDF724FA47
:105800007820FFF7B9FFFDF743FA4020FFF7B4FF18
:10581000FDF73EFA2046FFF7AFFFFDF739FAFDF737
:1058200027FA10BD490050EAC12018BF04204A0DD4
:1058300018BF40F0010040F2FF72B2EB515F08BFA9
:1058400040F00200012808BF052070472DE9F04113
:105850004F1E00EBC7010446D1E9000115461E4664
:1058600037F006020DD02A46334601F0CBFF7F1EEB
:1058700004EBC703D3E9002301F02EFD37F0060245
:10588000F1D1022F25D0042F13D0062F18BFBDE869
:10589000F0812A46334601F0B5FFD4E90A2301F02E
:1058A0001BFD2A46334601F0ADFFD4E9082301F081
:1058B00013FD2A46334601F0A5FFD4E9062301F083
:1058C0000BFD2A46334601F09DFFD4E9042301F085
:1058D00003FD2A46334601F095FFD4E9022301F087
:1058E000FBFC2A46334601F08DFFD4E90023BDE8D6
:1058F000F04101F0F1BC00000022134610460149BE
:1059000001F0A6BD0000F03F01F0E6BC0022134606
:105910001046114601F09CBD40F2013200204FF0CC
:10592000E04102F078BD0000024A0020110702F0B9
:1059300072BD000001FDFFFF30380A2801D20120AE
:10594000704700207047000070B5044622E02568CB
:10595000A08900F4807020B9A06810B1A068FFF79A
:10596000F3FFA08900F4807028B9206918B10B49B1
:10597000206909688847A08900F4007028B9206A66
:1059800018B10649206A0968884720460349096812
:1059900088472C46002CDAD170BD0000BC0D0020D9
:1059A00070B505460E46AC6800E024682CB131465F
:1059B000206A00F04FF80028F7D1204670BD0000A3
:1059C00010B5282005490968884704461CB12821DC
:1059D0002046FBF744F8204610BD0000B80D00201B
:1059E00010B5044600221146204600F001F810BD13
:1059F0002DE9F04780460D4616460024FFF7E0FFEC
:105A000007460020124908600FB9BDE8F0874046FC
:105A100001F0D4FB81464946384600F02BFD044690
:105A200024B93846FFF790FF0020EEE766B1204624
:105A300001F0C4FB0446207830B13846FFF784FFFC
:105A4000034804600020E0E705B12C603846DCE73D
:105A5000B40D002070B504460D462CB9AC4201D0FF
:105A6000012070BD0020FCE70DB90120F9E705E039
:105A7000207808B90020F4E7641C6D1C2078FAF740
:105A800099FC06462878FAF795FC8642F0D02078F3
:105A9000FAF790FC06462878FAF78CFC301AE0E713
:105AA00010B56FF00400FFF7C3F90A4800680A490F
:105AB000B0FBF1F0094908700846007800EB40019E
:105AC000C1EBC0104FF6FF7101EAC0000449088025
:105AD00010BD00000000002000127A001400002019
